S018000041746D65676133325F447269766572732E737265631A
S11300000C942A000C9447000C9447000C9447006D
S11300100C9447000C9447000C9447000C94470040
S11300200C9447000C9447000C9447000C94470030
S11300300C9447000C94E9020C9447000C94AF0212
S11300400C9447000C9447000C9447000C94470010
S11300500C94470011241FBECFE5D8E0DEBFCDBF0E
S113006010E0A0E6B0E0E8E8F6E002C005900D92EA
S1130070A63AB107D9F720E0A6EAB0E001C01D9284
S1130080AB3AB207E1F70E94F8010C9442030C94D6
S113009000008AB3807F8ABB8AB3806F8ABB8FEFEC
S11300A08BBB08950F931F93CF93DF9340E050E0F1
S11300B09DC03BB3E0E6F0E081E090E08C0100807D
S11300C002C0000F111F0A94E2F7EC01028002C083
S11300D0CC0FDD1F0A94E2F7DC01048002C0AA0FF2
S11300E0BB1F0A94E2F7BC01068002C0660F771FAB
S11300F00A94E2F72C2F202B2A2B262B232B2BBB05
S11301002BB3FA01EE0FFF1FE05AFF4F008002C02D
S1130110880F991F0A94E2F7809582238BBB60E0D5
S113012070E05EC089B3FB01EE0FFF1FE859FF4F7B
S1130130208190E0022E02C0959587950A94E2F7FB
S113014080FD4CC089B390E0022E02C0959587953E
S11301500A94E2F780FFF6CF41305105C9F024F448
S11301604115510541F03AC042305105F1F0433098
S1130170510541F133C061157105F1F1613071052B
S1130180E9F162307105E1F16330710539F53AC086
S113019061157105C9F161307105C1F162307105F4
S11301A0B9F163307105D1F435C061157105A1F160
S11301B06130710599F16230710591F16330710517
S11301C069F430C06115710579F16130710571F11F
S11301D06230710569F16330710561F16F5F7F4FC2
S11301E0643071050CF49ECF4F5F5F4F443051056E
S11301F00CF45FCF81E41FC087E31DC084E31BC000
S113020081E319C08FE317C088E315C085E313C0E9
S113021082E311C080E30FC089E30DC086E30BC005
S113022083E309C08DE307C08FE205C08AE203C0FF
S11302308DE201C08BE2DF91CF911F910F91089560
S113024082B38F7B82BB83ED90E30197F1F700C00B
S1130250000082B3806482BB089584B38F7084BB32
S113026082B3806282BB82B38F7E82BB0E942001F4
S113027084B384BB82B38F7D82BB83ED90E301970B
S1130280F1F700C000000895CF93C82F85B38F7095
S11302909C2F907F892B85BB82B38F7C82BB0E946D
S11302A0200187EA91E60197F1F700C0000025B329
S11302B030E1C39FC0011124922F9F70892B85BB0D
S11302C082B38F7C82BB0E942001CF91089581E08C
S11302D00E9444010895CF93DF93C82FD62F813015
S11302E031F4603220F480E8860F0E944401C23069
S11302F031F4D03220F480EC8D0F0E944401DF9160
S1130300CF91089587E893E10197F1F700C00000C9
S11303100E942D0181B3806781BB82B38F7882BB39
S11303200E94200185EA9EE00197F1F700C00000D9
S11303300E94670184B384BB82E00E94440188E286
S11303400E94440186E00E94440180E80E94440126
S11303508FE00E9444010895CF93C82F85B38F7016
S11303609C2F907F892B85BB82B3806182BB82B333
S11303708F7D82BB0E94200125B330E1C39FC00161
S11303801124922F9F70892B85BB82B3806182BB1D
S113039082B38F7D82BB0E942001CF9108950F9379
S11303A01F93CF93DF938C01C0E0D0E018C0219657
S11303B00F5F1F4F0E94AC01C032D10529F460E0E9
S11303C082E00E946B010BC0CF31D10541F40E9441
S11303D0670160E080E00E946B01C0E0D0E0F801BA
S11303E080818111E4CFDF91CF911F910F91089506
S11303F08FEF84BB8ABB81B3826081BB81B38E7F64
S113040081BB0E948E020E9449000E94820160E02A
S113041081E00E946B0183E790E00E94CF0160E0DD
S113042082E00E946B01C0E01BC00E945200D82FE2
S11304306C2F82E00E946B01DF3319F0D13481F01C
S113044003C00E9467010CC06C2F82E00E946B0104
S11304508D2F90E00E94A3028AE20E94AC01CF5F3C
S1130460C53018F30E94670160E081E00E946B01CF
S11304708CE890E00E94CF0160E082E00E946B0172
S1130480C0E01BC00E945200D82F6C2F82E00E9453
S11304906B01DF3319F0D13481F003C00E9467018E
S11304A00CC06C2F82E00E946B018D2F90E00E94A3
S11304B0A3028AE20E94AC01CF5FC53018F30E9408
S11304C0670160E081E00E946B018EE990E00E9488
S11304D0CF0160E082E00E946B01D0E001C0D0E077
S11304E00E945200C82F6D2F82E00E946B01CF330F
S11304F019F0C134A9F303C00E946701F1CF6D2F35
S113050082E00E946B018C2F90E00E94A3028AE299
S11305100E94AC01DF5FDE3119F7E1CF83E389B9D3
S11305208BB18D7F8BB980B5846080BD80B58260CE
S113053080BD8AB18B7F8AB98AB188608AB98AB151
S113054080618AB908955D9BFECF8CB908958CB9FA
S113055008958CB108958AB18F778AB908951F924E
S11305600F920FB60F9211242F933F934F935F93E3
S11305706F937F938F939F93AF93BF93EF93FF9367
S113058080917000E091A900F091AA00E80FF11D9C
S11305908081882341F00E94A702809170008F5FC0
S11305A08093700005C081E0809370008093720096
S11305B0FF91EF91BF91AF919F918F917F916F9137
S11305C05F914F913F912F910F900FBE0F901F900D
S11305D018951F920F920FB60F9211242F933F93E9
S11305E04F935F936F937F938F939F93AF93BF9337
S11305F0CF93DF93EF93FF93F8948091A600C0917B
S1130600A700D091A800C80FD11D0E94A902888319
S11306106091A60082E00E946B018091A600E091A7
S1130620A700F091A800E80FF11D80810E94AC01A1
S11306308091A600E091A700F091A800E80FF11DB9
S113064080818D3031F4108281E0809371000E94AA
S1130650AB028091A6008F5F8093A6007894FF91EF
S1130660EF91DF91CF91BF91AF919F918F917F9146
S11306706F915F914F913F912F910F900FBE0F900B
S10B06801F901895F894FFCFB8
S11306880400050006000700000001000200030042
S1130698010101456E7465722050617373776F723E
S11306A8642035206469676974733A0052652D457E
S11306B86E7465722050617373776F7264002B20B7
S10906C86F72202D0000FA
S9030000FC
