S018000041746D65676133325F447269766572732E737265631A
S11300000C942A000C9447000C9447000C9447006D
S11300100C9447000C9447000C9447000C94470040
S11300200C9447000C9447000C9447000C94470030
S11300300C9447000C9417010C9447000C94DD00B9
S11300400C9447000C9447000C9447000C94470010
S11300500C94470011241FBECFE5D8E0DEBFCDBF0E
S113006010E0A0E6B0E0E4EEF2E002C005900D92EC
S1130070A436B107D9F720E0A4E6B0E001C01D9290
S1130080A936B207E1F70E94B3000C9470010C94F6
S1130090000088B3877F88BB83ED90E30197F1F775
S11300A000C0000088B3886088BB0895CF93C82F30
S11300B08BB38F709C2F907F892B8BBB88B3897FE8
S11300C088BB0E94490087EA91E60197F1F700C0D6
S11300D000002BB330E1C39FC0011124922F9F7005
S11300E0892B8BBB88B3897F88BB0E944900CF9141
S11300F00895CF93DF93C82FD62F813031F4603128
S113010020F480E8860F0E945600C23031F4D031CA
S113011020F480EC8D0F0E945600DF91CF9108955A
S1130120CF93C82F8BB38F709C2F907F892B8BBB61
S113013088B3826088BB88B38B7F88BB0E944900E8
S11301402BB330E1C39FC0011124922F9F70892BE0
S11301508BBB88B3826088BB88B38B7F88BB0E94CB
S11301604900CF9108958FEF8ABB80ED90E00E9403
S1130170BD000E94BF008BBBFCCF82B9089584EC04
S113018086BF06B607FEFDCF01C081B181B18036BE
S1130190E1F784EC86BF06B607FEFDCF01C081B14E
S11301A081B18038E1F783B108958CB908958CB199
S11301B008958AB18F778AB908951F920F920FB666
S11301C00F9211242F933F934F935F936F937F93D9
S11301D08F939F93AF93BF93EF93FF9380916000AE
S11301E0E0916700F0916800E80FF11D8081882399
S11301F041F00E94D500809160008F5F8093600081
S113020005C081E08093600080936200FF91EF91CC
S1130210BF91AF919F918F917F916F915F914F911A
S11302203F912F910F900FBE0F901F9018951F9222
S11302300F920FB60F9211242F933F934F935F9316
S11302406F937F938F939F93AF93BF93CF93DF93DA
S1130250EF93FF93F89480916400C0916500D0916E
S11302606600C80FD11D0E94D70088836091640086
S113027082E00E94790080916400E0916500F09131
S11302806600E80FF11D80810E9490008091640057
S1130290E0916500F0916600E80FF11D80818D30DA
S11302A031F4108281E0809361000E94D900809132
S11302B064008F5F809364007894FF91EF91DF91E5
S11302C0CF91BF91AF919F918F917F916F915F91EA
S11302D04F913F912F910F900FBE0F901F90189543
S10702E0F894FFCFBC
S10702E4010101000F
S9030000FC
