:100000000C942A000C9434000C9434000C943400AA
:100010000C9434000C9434000C9434000C94340090
:100020000C9434000C9434000C9434000C94340080
:100030000C9434000C9434000C9434000C94340070
:100040000C9434000C9434000C9434000C94340060
:100050000C94340011241FBECFE5D8E0DEBFCDBF25
:100060000E9436000C9473000C94000060E070E075
:100070001AC02AB381E090E0062E02C0880F991FB3
:100080000A94E2F7922F982B9ABB9BB3892B8BBBD8
:100090002FEF44E38CE0215040408040E1F700C066
:1000A00000006F5F7F4F683071051CF327E030E080
:1000B00017C04BB381E090E0022E02C0880F991F59
:1000C0000A94E2F7809584238BBB9FEF44E38CE096
:1000D000915040408040E1F700C0000021503109BC
:0A00E00033233CF7E0CFF894FFCF84
:00000001FF
