:100000000C942A000C9434000C9434000C943400AA
:100010000C9434000C9434000C9434000C94340090
:100020000C9434000C9434000C9434000C94340080
:100030000C9434000C9434000C9434000C94340070
:100040000C9434000C9434000C9434000C94340060
:100050000C94340011241FBECFE5D8E0DEBFCDBF25
:100060000E9446000C945A000C94000080EB87BB61
:1000700087B38F7B87BB81E58DB9089598B39F7E49
:1000800098BB8FB9779BFECF8FB108950E94360041
:100090008FEF8ABBC0E02FE38DE093E021508040DA
:1000A0009040E1F700C000008C2F0E943E008BBB07
:0800B000CF5FF1CFF894FFCF00
:00000001FF
