S01700004763634170706C69636174696F6E332E7372656359
S11300000C942A000C9434000C9434000C943400A6
S11300100C9434000C9434000C9434000C9434008C
S11300200C9434000C9434000C9434000C9434007C
S11300300C9434000C9434000C9434000C9434006C
S11300400C9434000C9434000C9434000C9434005C
S11300500C94340011241FBECFE5D8E0DEBFCDBF21
S11300600E9436000C9480000C94000020E030E0E4
S11300700DC04AB381E090E0022E02C0880F991FA0
S11300800A94E2F7842B8ABB2F5F3F4F2830310557
S113009084F381B38E7F81BB82B3816082BB60E0D5
S11300A070E002C060E070E080B391E0282F21701E
S11300B080FD90E090BB2111F7CF17C04BB381E0D6
S11300C090E0022E02C0880F991F0A94E2F7842B55
S11300D08BBB4FE78AE196E0415080409040E1F7C6
S11300E000C000002F5F3F4F02C020E030E06217E5
S11300F0730724F76F5F7F4F68307105A9F6D2CF7D
S1070100F894FFCF9D
S9030000FC
