S018000041746D65676133325F447269766572732E737265631A
S11300000C942A000C9447000C9447000C9447006D
S11300100C9447000C9447000C9447000C94470040
S11300200C9447000C9447000C9428010C94540140
S11300300C9447000C94C2010C9447000C94880162
S11300400C9447000C9447000C9447000C94470010
S11300500C94470011241FBECFE5D8E0DEBFCDBF0E
S113006010E0A0E6B0E0EAE3F4E002C005900D92EF
S1130070A436B107D9F720E0A4E6B0E001C01D9290
S1130080A037B207E1F70E94C4000C941B020C9441
S1130090000088B3877F88BB83ED90E30197F1F775
S11300A000C0000088B3886088BB0895CF93C82F30
S11300B08BB38F709C2F907F892B8BBB88B3897FE8
S11300C088BB0E94490087EA91E60197F1F700C0D6
S11300D000002BB330E1C39FC0011124922F9F7005
S11300E0892B8BBB88B3897F88BB0E944900CF9141
S11300F00895CF93DF93C82FD62F813031F4603128
S113010020F480E8860F0E945600C23031F4D031CA
S113011020F480EC8D0F0E945600DF91CF9108955A
S1130120CF93C82F8BB38F709C2F907F892B8BBB61
S113013088B3826088BB88B38B7F88BB0E944900E8
S11301402BB330E1C39FC0011124922F9F70892BE0
S11301508BBB88B3826088BB88B38B7F88BB0E94CB
S11301604900CF91089595B381E0892785BB2FEF8E
S113017084E39CE0215080409040E1F700C00000FF
S1130180809164008BBB0895CF93DF9300D000D09F
S1130190CDB7DEB784B3816084BB8FEF8ABB78941C
S11301A083EB90E00E94230188E089831A8282E035
S11301B08B838C8380EF90E00E941E01CE01019618
S11301C00E94E300FFCF0097A9F190936B00809306
S11301D06A00FC018081882311F0883029F493B7E8
S11301E0892B83BF80E001C081E0E0916A00F09137
S11301F06B009381983020F423B7922B93BF01C0F6
S113020081E0E0916A00F0916B009281992311F0F2
S1130210923021F429B7922B99BF01C081E0E0917B
S11302206A00F0916B009181923030F429B7922BDF
S113023099BF089581E0089581E008952CB7FC01E9
S1130240208380E0089590936F0080936E0008955A
S11302501F920F920FB60F9211242F933F934F9337
S11302605F936F937F938F939F93AF93BF93EF931A
S1130270FF93809164008F5F80936400E0916E002F
S1130280F0916F000995FF91EF91BF91AF919F910C
S11302908F917F916F915F914F913F912F910F902B
S11302A00FBE0F901F9018951F920F920FB60F92CA
S11302B011242F933F934F935F936F937F938F9367
S11302C09F93AF93BF93EF93FF93809164008F5FED
S11302D080936400E0916C00F0916D000995FF91AA
S11302E0EF91BF91AF919F918F917F916F915F91AA
S11302F04F913F912F910F900FBE0F901F90189523
S11303008CB908958CB108958AB18F778AB908950C
S11303101F920F920FB60F9211242F933F934F9376
S11303205F936F937F938F939F93AF93BF93EF9359
S1130330FF9380916000E0916800F0916900E80FFC
S1130340F11D8081882341F00E948001809160002A
S11303508F5F8093600005C081E08093600080938C
S11303606200FF91EF91BF91AF919F918F917F9127
S11303706F915F914F913F912F910F900FBE0F900E
S11303801F9018951F920F920FB60F9211242F935E
S11303903F934F935F936F937F938F939F93AF9309
S11303A0BF93CF93DF93EF93FF93F894809165000D
S11303B0C0916600D0916700C80FD11D0E948201D0
S11303C088836091650082E00E94790080916500D5
S11303D0E0916600F0916700E80FF11D80810E94B2
S11303E0900080916500E0916600F0916700E80F4D
S11303F0F11D80818D3031F4108281E080936100A1
S11304000E948401809165008F5F809365007894D9
S1130410FF91EF91DF91CF91BF91AF919F918F9118
S11304207F916F915F914F913F912F910F900FBEEC
S10D04300F901F901895F894FFCF69
S107043A01010100B7
S9030000FC
