S01500004C6573736F6E315F554E4954372E7372656394
S11300000C942A000C9434000C9434000C943400A6
S11300100C9434000C9434000C9434000C9434008C
S11300200C9434000C9434000C9434000C9434007C
S11300300C9434000C9434000C9434000C9434006C
S11300400C9434000C9434000C9434000C9434005C
S11300500C94340011241FBECFE5D8E0DEBFCDBF21
S11300600E9436000C9496000C94000020E030E0CE
S11300700DC04AB381E090E0022E02C0880F991FA0
S11300800A94E2F7842B8ABB2F5F3F4F2830310557
S113009084F320E030E00DC044B381E090E0022E10
S11300A002C0880F991F0A94E2F7842B84BB2F5F48
S11300B03F4F2830310584F381B38E7F81BB82B3F7
S11300C0816082BB40E050E02DC09A0122953295B8
S11300D0307F3227207F3227286025BB2FEF32E57F
S11300E067E0215030406040E1F700C000009C010F
S11300F022953295307F3227207F3227246025BB1A
S11301002FEF32E567E0215030406040E1F700C056
S11301100000019602C080E090E08A309105ACF2C4
S11301204F5F5F4F4A305105B4F3CCCFF894FFCF03
S9030000FC
