S01D00004C6573736F6E345F556E6974375F447269766572732E73726563EB
S11300000C942A000C943F000C943F000C943F0085
S11300100C943F000C943F000C943F000C943F0060
S11300200C943F000C943F000C943F000C943F0050
S11300300C943F000C943F000C943F000C943F0040
S11300400C943F000C943F000C943F000C943F0030
S11300500C943F0011241FBECFE5D8E0DEBFCDBF16
S113006010E0A0E6B0E0E8E4F2E002C005900D92F2
S1130070A237B107D9F70E9419010C9422010C94FC
S1130080000088B3877F88BB83ED90E30197F1F785
S113009000C0000088B3886088BB08958AB38F705D
S11300A08ABB88B3846088BB88B38D7F88BB0E9479
S11300B041008AB38ABB88B38B7F88BB83ED90E30E
S11300C00197F1F700C000000895CF93C82F8BB3B8
S11300D08F709C2F907F892B8BBB88B3897F88BBC3
S11300E00E94410087EA91E60197F1F700C0000001
S11300F02BB330E1C39FC0011124922F9F70892B31
S11301008BBB88B3897F88BB0E944100CF9108953F
S113011081E00E9465000895CF93DF93C82FD62F06
S1130120813031F4603120F480E8860F0E9465004C
S1130130C23031F4D03120F480EC8D0F0E94650080
S1130140DF91CF91089587E893E10197F1F700C01B
S113015000000E944E0087B38E6087BB88B3817F06
S113016088BB0E94410085EA9EE00197F1F700C038
S113017000000E9488008AB38ABB82E00E94650066
S113018088E20E94650086E00E94650080E80E9483
S113019065008FE00E9465000895CF93C82F8BB34C
S11301A08F709C2F907F892B8BBB88B3826088BB18
S11301B088B38B7F88BB0E9441002BB330E1C39F7F
S11301C0C0011124922F9F70892B8BBB88B382604E
S11301D088BB88B38B7F88BB0E944100CF91089570
S11301E00F931F93CF93DF938C01C0E0D0E018C02E
S11301F021960F5F1F4F0E94CD00C031D10529F415
S113020060E082E00E948C000BC0CF31D10541F444
S11302100E94880060E080E00E948C00C0E0D0E092
S1130220F80180818111E4CFDF91CF911F910F916B
S113023008950E9488000E94A30080E690E00E9436
S10B0240F000FFCFF894FFCF9A
S11302484C6561726E20696E204465707468202E56
S10502582E0072
S9030000FC
