:100000000C942A000C9447000C9447000C94470071
:100010000C9447000C9447000C9447000C94470044
:100020000C9447000C9447000C9447000C94470034
:100030000C9447000C94DE010C9447000C94A4012E
:100040000C9447000C9447000C9447000C94470014
:100050000C94470011241FBECFE5D8E0DEBFCDBF12
:1000600010E0A0E6B0E0E2E7F4E002C005900D92F7
:10007000A638B107D9F720E0A6E8B0E001C01D928C
:10008000AF3EB207E1F70E9421010C9437020C94B5
:10009000000088B3877F88BB83ED90E30197F1F779
:1000A00000C0000088B3886088BB08958AB38F7051
:1000B0008ABB88B3846088BB88B38D7F88BB0E946D
:1000C00049008AB38ABB88B38B7F88BB83ED90E3FA
:1000D0000197F1F700C000000895CF93C82F8BB3AC
:1000E0008F709C2F907F892B8BBB88B3897F88BBB7
:1000F0000E94490087EA91E60197F1F700C00000ED
:100100002BB330E1C39FC0011124922F9F70892B24
:100110008BBB88B3897F88BB0E944900CF9108952B
:1001200081E00E946D000895CF93DF93C82FD62FF2
:10013000813031F4603120F480E8860F0E946D0038
:10014000C23031F4D03120F480EC8D0F0E946D006C
:10015000DF91CF91089587E893E10197F1F700C00F
:1001600000000E94560087B38E6087BB88B3817FF2
:1001700088BB0E94490085EA9EE00197F1F700C024
:1001800000000E9490008AB38ABB82E00E946D004A
:1001900088E20E946D0086E00E946D0080E80E9467
:1001A0006D008FE00E946D000895CF93C82F8BB330
:1001B0008F709C2F907F892B8BBB88B3826088BB0C
:1001C00088B38B7F88BB0E9449002BB330E1C39F6B
:1001D000C0011124922F9F70892B8BBB88B3826042
:1001E00088BB88B38B7F88BB0E944900CF9108955C
:1001F0000F931F93CF93DF938C01C0E0D0E018C022
:1002000021960F5F1F4F0E94D500C031D10529F400
:1002100060E082E00E9494000BC0CF31D10541F430
:100220000E94900060E080E00E949400C0E0D0E076
:10023000F80180818111E4CFDF91CF911F910F915F
:1002400008950E9490000E94AB000E94580162E055
:1002500081E00E94940083E690E00E94F80081E72C
:1002600090E00E947F012FE38DE093E021508040D9
:100270009040E1F700C000008EE790E00E947F010F
:100280000E949501C0E360E081E00E9494008C2F01
:100290000E94D500CF5FCA3309F4C0E32FE78AE19B
:1002A00096E0215080409040E1F700C00000EBCF85
:1002B00083E389B98BB18D7F8BB980B5846080BDB4
:1002C00080B5826080BD8AB18B7F8AB98AB188602F
:1002D0008AB98AB180618AB908958CB908958CB1C0
:1002E000089578948AB180688AB908958AB18F7721
:1002F0008AB9089578948AB180648AB90895CF93B1
:10030000DF939C0190916200913061F4E901309398
:100310008A00209389000E947A0188810E946D01E1
:1003200010926200DF91CF91089580916100813039
:1003300051F4109261008BE890E0909388008093D4
:1003400087000E94710108951F920F920FB60F92BD
:1003500011242F933F934F935F936F937F938F93CA
:100360009F93AF93BF93EF93FF9380916000E091D1
:100370008900F0918A00E80FF11D8081882341F007
:100380000E946D01809160008F5F8093600005C0C6
:1003900081E08093600080936200FF91EF91BF91B4
:1003A000AF919F918F917F916F915F914F913F910D
:1003B0002F910F900FBE0F901F9018951F920F92C4
:1003C0000FB60F9211242F933F934F935F936F9328
:1003D0007F938F939F93AF93BF93CF93DF93EF93CD
:1003E000FF93F89480918600C0918700D091880097
:1003F000C80FD11D0E946F0188836091860082E042
:100400000E94940080918600E0918700F09188001E
:10041000E80FF11D80810E94D50080918600E09157
:100420008700F0918800E80FF11D80818D3031F454
:10043000108281E0809361000E94760180918600A5
:100440008F5F809386007894FF91EF91DF91CF9139
:10045000BF91AF919F918F917F916F915F914F91DC
:100460003F912F910F900FBE0F901F901895F89409
:02047000FFCFBC
:100472000101015541525420545220526561647960
:10048200004D696E612057656C636F6D6500446F46
:060492006E653D3D3D00DA
:00000001FF
