:100000000C942A000C943F000C943F000C943F0089
:100010000C943F000C943F000C943F000C943F0064
:100020000C943F000C943F000C943F000C943F0054
:100030000C943F000C943F000C943F000C943F0044
:100040000C943F000C943F000C943F000C943F0034
:100050000C943F0011241FBECFE5D8E0DEBFCDBF1A
:1000600010E0A0E6B0E0E2EFF2E002C005900D92F1
:10007000A037B107D9F70E940D010C9477010C94B9
:10008000000088B3886088BB83ED90E30197F1F7A7
:1000900000C0000088B3877F88BB08958AB38F7043
:1000A0008ABB88B384608D7F88BB0E94410088B37F
:1000B0008B7F88BB0895CF93C82F0E944E008BB3CF
:1000C0008F709C2F907F892B8BBB88B3897F88BBD7
:1000D0000E94410087EA91E60197F1F700C0000015
:1000E0002BB330E1C39FC0011124922F9F70892B45
:1000F0008BBB88B3897F88BB0E944100CF91089554
:1001000081E00E945B000895CF93DF93C82FD62F24
:10011000813031F4603120F480E8860F0E945B006A
:10012000C23031F4D03120F480EC8D0F0E945B009E
:10013000DF91CF91089587E893E10197F1F700C02F
:1001400000000E944E0087B38E6087BB88B3817F1A
:1001500088BB8FEF8ABB85EA9EE00197F1F700C06C
:1001600000000E94800082E00E945B0088E20E9402
:100170005B0086E00E945B0080E80E945B008FE0ED
:100180000E945B000895CF93C82F0E944E008BB34E
:100190008F709C2F907F892B8BBB88B382608B7F65
:1001A00088BB0E9441002BB330E1C39FC0011124E2
:1001B000922F9F70892B8BBB88B382608B7F88BB0B
:1001C0000E944100CF9108950F931F93CF93DF9327
:1001D0008C01C0E0D0E018C021960F5F1F4F0E9435
:1001E000C300C031D10529F460E082E00E948400A0
:1001F0000BC0CF31D10541F40E94800060E080E067
:100200000E948400C0E0D0E0F80180818111E4CF39
:10021000DF91CF911F910F91089561E08BB30E9400
:100220001A010E9480000E949B0080E690E00E94DC
:10023000E400FFCF8130E1F030F0823071F18330A3
:1002400009F440C00895613041F028F0633041F076
:10025000643051F008951ABA08958FEF8ABB08955B
:100260001ABA8FEF8BBB08951ABA8FEF8BBB089524
:10027000613041F028F0633041F0643051F008956E
:1002800017BA08958FEF87BB089517BA8FEF88BB11
:1002900008951ABA8FEF8BBB0895613041F028F0B2
:1002A000633041F0643051F0089514BA08958FEF2F
:1002B00084BB089514BA8FEF85BB08951ABA8FEFE7
:1002C0008BBB0895613041F028F0633041F0643019
:1002D00051F0089511BA08958FEF81BB089511BAB6
:1002E0008FEF82BB08951ABA8FEF8BBB0895F894F5
:0202F000FFCF3E
:1002F2004C6561726E20696E2044657074680000FE
:00000001FF
