:100000000C942A000C9447000C9447000C94470071
:100010000C9447000C9447000C9447000C94470044
:100020000C9447000C9447000C9463010C948F01CE
:100030000C9447000C94FD010C9447000C94C301F0
:100040000C9447000C9447000C9447000C94470014
:100050000C94470011241FBECFE5D8E0DEBFCDBF12
:1000600010E0A0E6B0E0E0EBF4E002C005900D92F5
:10007000A836B107D9F720E0A8E6B0E001C01D928C
:10008000A537B207E1F70E94D5000C9456020C94F4
:10009000000088B3877F88BB83ED90E30197F1F779
:1000A00000C0000088B3886088BB0895CF93C82F34
:1000B0008BB38F709C2F907F892B8BBB88B3897FEC
:1000C00088BB0E94490087EA91E60197F1F700C0DA
:1000D00000002BB330E1C39FC0011124922F9F7009
:1000E000892B8BBB88B3897F88BB0E944900CF9145
:1000F0000895CF93DF93C82FD62F813031F460312C
:1001000020F480E8860F0E945600C23031F4D031CE
:1001100020F480EC8D0F0E945600DF91CF9108955E
:10012000CF93C82F8BB38F709C2F907F892B8BBB65
:1001300088B3826088BB88B38B7F88BB0E944900EC
:100140002BB330E1C39FC0011124922F9F70892BE4
:100150008BBB88B3826088BB88B38B7F88BB0E94CF
:100160004900CF91089598B381E0892788BB2FEF8C
:1001700080E792E0215080409040E1F700C000000D
:10018000809170008BBB089598B382E0892788BB6B
:100190002FEF80E792E0215080409040E1F700C0CF
:1001A000000080916D0085BB0895CF93DF9300D050
:1001B00000D000D0CDB7DEB78FEF8ABB87BB84BB42
:1001C00081BBCE0101960E945301898182BB789444
:1001D00083EB90E00E945E0184EC90E00E94590164
:1001E00085E0E3E6F0E0DE01129601900D928A953B
:1001F000E1F78FE70E945701CE0102960E940101AC
:10020000FFCF90936F0080936E00FC01808180345B
:1002100011F0883079F4803439F483B7806483BF77
:1002200083B7886083BF06C083B7806483BF83B70A
:10023000877F83BFE0916E00F0916F0083818830EB
:1002400018F493B7892B83BFE0916E00F0916F0093
:100250008281882311F0823019F499B7892B89BFE4
:10026000E0916E00F0916F008181823018F499B7AF
:10027000892B89BFE0916E00F0916F0084818033FB
:1002800011F0803179F4803339F483B7806183BF12
:1002900083B7806283BF089583B78F7E83BF83B7A0
:1002A000806283BF08952CB7FC01208308958CBF22
:1002B0000895909372008093710008959093740054
:1002C0008093730008951F920F920FB60F9211241E
:1002D0002F933F934F935F936F937F938F939F934E
:1002E000AF93BF93EF93FF93809170008F5F8093E4
:1002F0007000E0917300F09174000995FF91EF9107
:10030000BF91AF919F918F917F916F915F914F912D
:100310003F912F910F900FBE0F901F9018951F9235
:100320000F920FB60F9211242F933F934F935F9329
:100330006F937F938F939F93AF93BF93EF93FF93AD
:1003400080916D008F5F80936D00E0917100F0915E
:1003500072000995FF91EF91BF91AF919F918F919D
:100360007F916F915F914F913F912F910F900FBEB1
:100370000F901F9018958CB908958CB108958AB18B
:100380008F778AB908951F920F920FB60F9211249A
:100390002F933F934F935F936F937F938F939F938D
:1003A000AF93BF93EF93FF9380916000E0916B0058
:1003B000F0916C00E80FF11D8081882341F00E94CC
:1003C000BB01809160008F5F8093600005C081E079
:1003D0008093600080936200FF91EF91BF91AF9195
:1003E0009F918F917F916F915F914F913F912F914D
:1003F0000F900FBE0F901F9018951F920F920FB67F
:100400000F9211242F933F934F935F936F937F939A
:100410008F939F93AF93BF93CF93DF93EF93FF930C
:10042000F89480916800C0916900D0916A00C80F6B
:10043000D11D0E94BD0188836091680082E00E9406
:10044000790080916800E0916900F0916A00E80FFE
:10045000F11D80810E94900080916800E091690008
:10046000F0916A00E80FF11D80818D3031F4108227
:1004700081E0809361000E94BF01809168008F5FDE
:10048000809368007894FF91EF91DF91CF91BF91B5
:10049000AF919F918F917F916F915F914F913F911C
:1004A0002F910F900FBE0F901F901895F894FFCFCB
:0804B000010101080102021024
:00000001FF
