:100000000C942A000C9447000C9447000C94470071
:100010000C9447000C9447000C9447000C94470044
:100020000C9447000C9447000C94AD010C94D9013A
:100030000C9447000C9447020C9447000C940D025A
:100040000C9447000C9447000C9447000C94470014
:100050000C94470011241FBECFE5D8E0DEBFCDBF12
:1000600010E0A0E6B0E0EAE7FBE002C005900D92E8
:10007000A437B107D9F720E0A4E7B0E001C01D9292
:10008000A138B207E1F70E942E010C94BB050C9435
:1000900000008BB38B7F8BBB83ED90E30197F1F76F
:1000A00000C000008BB384608BBB08958AB38F704F
:1000B0008ABB8BB381608BBB8BB38D7F8BBB0E9464
:1000C00049008AB38ABB8BB38E7F8BBB83ED90E3F1
:1000D0000197F1F700C000000895CF93C82F8BB3AC
:1000E0008F709C2F907F892B8BBB8BB38C7F8BBBAE
:1000F0000E94490087EA91E60197F1F700C00000ED
:100100002BB330E1C39FC0011124922F9F70892B24
:100110008BBB8BB38C7F8BBB0E944900CF91089522
:1001200081E00E946D000895CF93DF93C82FD62FF2
:10013000813031F4603120F480E8860F0E946D0038
:10014000C23031F4D03120F480EC8D0F0E946D006C
:10015000DF91CF91089587E893E10197F1F700C00F
:1001600000000E9456008AB387608ABB8BB3887FE9
:100170008BBB0E94490085EA9EE00197F1F700C021
:1001800000000E9490008AB38ABB82E00E946D004A
:1001900088E20E946D0086E00E946D0080E80E9467
:1001A0006D008FE00E946D000895CF93C82F8BB330
:1001B0008F709C2F907F892B8BBB8BB382608BBB06
:1001C0008BB38E7F8BBB0E9449002BB330E1C39F62
:1001D000C0011124922F9F70892B8BBB8BB382603F
:1001E0008BBB8BB38E7F8BBB0E944900CF91089550
:1001F0000F931F93CF93DF938C01C0E0D0E018C022
:1002000021960F5F1F4F0E94D500C031D10529F400
:1002100060E082E00E9494000BC0CF31D10541F430
:100220000E94900060E080E00E949400C0E0D0E076
:10023000F80180818111E4CFDF91CF911F910F915F
:1002400008959C01A8E8B3E10E94C20220E038E2D0
:1002500040E050E00E94A002822F0895CF93DF93E8
:10026000CDB7DEB7A0970FB6F894DEBF0FBECDBFF7
:100270008FEF8ABB87BB84BB81BB0E94AB0066E06B
:1002800081E00E94770160E081E00E94940083E6B3
:1002900090E00E94F80061E082E00E94940083E018
:1002A0000E949B010E9421011F928F9381E790E0A1
:1002B0009F938F938E010F5F1F4F1F930F930E9489
:1002C000D10261E082E00E949400C8010E94F8001F
:1002D00065E082E00E94940083E490E00E94F800D0
:1002E0000F900F900F900F900F900F90D8CF8130FC
:1002F00059F018F0823079F014C087B18F7B87B93C
:1003000087B18F7787B90DC087B1806487B987B10E
:100310008F7787B906C087B1806487B987B1806855
:1003200087B986B1887F86B986B1682B66B986B1F0
:10033000806886B9089597B1907E97B997B1892B57
:1003400087B986B1806486B93699FECF24B185B16C
:1003500090E0982F8827822B08951F920F920FB656
:100360000F9211242F933F934F935F936F937F933B
:100370008F939F93AF93BF93EF93FF9380917C00F4
:100380008F5F80937C00E0917F00F0918000099561
:10039000FF91EF91BF91AF919F918F917F916F915D
:1003A0005F914F913F912F910F900FBE0F901F9033
:1003B00018951F920F920FB60F9211242F933F930F
:1003C0004F935F936F937F938F939F93AF93BF935D
:1003D000EF93FF93809179008F5F80937900E09194
:1003E0007D00F0917E000995FF91EF91BF91AF9153
:1003F0009F918F917F916F915F914F913F912F913D
:100400000F900FBE0F901F9018958CB908958CB166
:1004100008958AB18F778AB908951F920F920FB607
:100420000F9211242F933F934F935F936F937F937A
:100430008F939F93AF93BF93EF93FF93809160004F
:10044000E0917700F0917800E80FF11D808188231A
:1004500041F00E940502809160008F5F80936000F0
:1004600005C081E08093600080936200FF91EF916E
:10047000BF91AF919F918F917F916F915F914F91BC
:100480003F912F910F900FBE0F901F9018951F92C4
:100490000F920FB60F9211242F933F934F935F93B8
:1004A0006F937F938F939F93AF93BF93CF93DF937C
:1004B000EF93FF93F89480917400C0917500D091F0
:1004C0007600C80FD11D0E940702888360917400D6
:1004D00082E00E94940080917400E0917500F09198
:1004E0007600E80FF11D80810E94D5008091740094
:1004F000E0917500F0917600E80FF11D80818D305C
:1005000031F4108281E0809361000E9409028091A1
:1005100074008F5F809374007894FF91EF91DF9166
:10052000CF91BF91AF919F918F917F916F915F918B
:100530004F913F912F910F900FBE0F901F901895E4
:10054000A1E21A2EAA1BBB1BFD010DC0AA1FBB1FD7
:10055000EE1FFF1FA217B307E407F50720F0A21B49
:10056000B30BE40BF50B661F771F881F991F1A94B6
:1005700069F760957095809590959B01AC01BD01E0
:10058000CF010895A29FB001B39FC001A39F700D3A
:10059000811D1124911DB29F700D811D1124911D8B
:1005A0000895AEE0B0E0E7EDF2E00C9492050D891D
:1005B0001E8986E08C831A8309838FEF9FE79E83D1
:1005C0008D83AE01475E5F4F6F89788DCE010196B6
:1005D0000E94F302EF81F885E00FF11F10822E9642
:1005E000E4E00C94AE05ABE0B0E0E9EFF2E00C948F
:1005F00084056C017B018A01FC01178216828381CC
:1006000081FFCCC1CE0101963C01F6019381F70137
:1006100093FD859193FF81917F01882309F4BAC1ED
:10062000853239F493FD859193FF81917F01853265
:1006300029F4B60190E00E94EA04E7CF912C212C26
:10064000312CFFE1F315D8F08B3279F038F4803299
:1006500079F08332A1F4232D20611DC08D3261F029
:10066000803369F4232D216016C0832D8260382EDB
:10067000E32DE4603E2E2AC0F32DF8601DC037FC48
:100680002DC020ED280F2A3040F08E32B9F436FC10
:1006900081C1232D2064322E19C036FE06C08AE0A7
:1006A000989E200D1124922E11C0EAE02E9E200D5E
:1006B0001124222EF32DF0623F2E08C08C3621F437
:1006C000832D8068382E02C0883641F4F70193FDEF
:1006D000859193FF81917F018111B3CF982F9F7DE9
:1006E0009554933028F40C5F1F4F9FE399830DC0FE
:1006F000833631F0833771F0833509F059C021C05A
:10070000F801808189830E5F1F4F88248394912C88
:10071000530113C02801F2E04F0E511CF801A080D4
:10072000B18036FE03C0692D70E002C06FEF7FEF2D
:10073000C5010E94DF044C018201F32DFF773F2E9B
:1007400016C0280122E0420E511CF801A080B180A1
:1007500036FE03C0692D70E002C06FEF7FEFC50168
:100760000E94D4044C01F32DF0683F2E820133FC2B
:100770001BC0822D90E088169906B0F4B60180E285
:1007800090E00E94EA042A94F4CFF50137FC8591A9
:1007900037FE81915F01B60190E00E94EA042110CA
:1007A0002A9421E0821A91088114910471F7E8C01B
:1007B000843611F0893641F5F80137FE07C06081B3
:1007C0007181828193810C5F1F4F08C060817181AC
:1007D000072E000C880B990B0E5F1F4FF32DFF7631
:1007E0003F2E97FF09C090958095709561957F4F3A
:1007F0008F4F9F4FF0683F2E2AE030E0A3010E9408
:100800002605882E861845C0853731F4232D2F7E86
:10081000B22E2AE030E025C0932D997FB92E8F3675
:10082000C1F018F4883579F0B5C0803719F08837F1
:1008300021F0B0C0E92FE061BE2EB4FE0DC0FB2D4B
:10084000F460BF2E09C034FE0AC0292F2660B22EE4
:1008500006C028E030E005C020E130E002C020E121
:1008600032E0F801B7FE07C0608171818281938117
:100870000C5F1F4F06C06081718180E090E00E5FC9
:100880001F4FA3010E942605882E8618FB2DFF7797
:100890003F2E36FE0DC0232D2E7FA22E891458F434
:1008A00034FE0BC032FC09C0832D8E7EA82E05C0FD
:1008B000B82CA32C03C0B82C01C0B92CA4FE0FC0C7
:1008C000FE01E80DF11D8081803321F49A2D997E7F
:1008D000A92E09C0A2FE06C0B394B39404C08A2D09
:1008E000867809F0B394A3FC11C0A0FE06C0B21430
:1008F00088F4280C922C9B180EC0B21460F4B60138
:1009000080E290E00E94EA04B394F7CFB21418F4A6
:100910002B1802C0982C212CA4FE10C0B60180E335
:1009200090E00E94EA04A2FE17C0A1FC03C088E781
:1009300090E002C088E590E0B6010CC08A2D867870
:1009400059F0A1FE02C08BE201C080E2A7FC8DE25B
:10095000B60190E00E94EA04891438F4B60180E3FD
:1009600090E00E94EA049A94F7CF8A94F301E80D8C
:10097000F11D8081B60190E00E94EA048110F5CF5C
:10098000222009F442CEB60180E290E00E94EA04FF
:100990002A94F6CFF6018681978102C08FEF9FEFF0
:1009A0002B96E2E10C94A005FC010590615070408B
:1009B0000110D8F7809590958E0F9F1F0895FC0128
:1009C0006150704001900110D8F7809590958E0F7E
:1009D0009F1F08950F931F93CF93DF93FB012381F4
:1009E00021FD03C08FEF9FEF2CC022FF16C0468170
:1009F0005781248135814217530744F4A081B18186
:100A00009D012F5F3F4F318320838C932681378157
:100A10002F5F3F4F3783268314C08B01EC01FB010E
:100A20000084F185E02D0995892BE1F6D801169611
:100A30008D919C911797019617969C938E9316977C
:100A4000CE01DF91CF911F910F910895FA01AA274E
:100A5000283051F1203181F1E8946F936E7F6E5F01
:100A60007F4F8F4F9F4FAF4FB1E03ED0B4E03CD0AF
:100A7000670F781F891F9A1FA11D680F791F8A1F92
:100A8000911DA11D6A0F711D811D911DA11D20D0F9
:100A900009F468943F912AE0269F11243019305DB3
:100AA0003193DEF6CF010895462F4770405D4193A4
:100AB000B3E00FD0C9F7F6CF462F4F70405D4A33F1
:100AC00018F0495D31FD4052419302D0A9F7EACFB9
:100AD000B4E0A6959795879577956795BA95C9F7E8
:100AE00000976105710508959B01AC010A2E0694DB
:100AF0005795479537952795BA95C9F7620F731F94
:100B0000841F951FA01D08952F923F924F925F92D0
:100B10006F927F928F929F92AF92BF92CF92DF920D
:100B2000EF92FF920F931F93CF93DF93CDB7DEB772
:100B3000CA1BDB0B0FB6F894DEBF0FBECDBF099406
:100B40002A88398848885F846E847D848C849B845D
:100B5000AA84B984C884DF80EE80FD800C811B816B
:100B6000AA81B981CE0FD11D0FB6F894DEBF0FBE9A
:0A0B7000CDBFED010895F894FFCF0A
:100B7A0001010154656D7065726174757265203D7D
:040B8A0000256400DE
:00000001FF
