S018000041746D65676133325F447269766572732E737265631A
S11300000C942A000C9447000C9447000C9447006D
S11300100C9447000C9447000C9447000C94470040
S11300200C9447000C9447000C946A040C949104BB
S11300300C9447000C945F050C9447000C94250520
S11300400C9447000C9447000C9447000C94470010
S11300500C94470011241FBECFE5D8E0DEBFCDBF0E
S113006011E0A0E6B0E0E6E6F1E102C005900D92F1
S1130070AA34B107D9F721E0AAE4B1E001C01D9286
S1130080AF39B207E1F70E9457020C94B1080C94FF
S1130090000088B38F7788BB83ED90E30197F1F775
S11300A000C0000088B3806888BB08958AB38F704D
S11300B08ABB88B3806488BB88B38F7D88BB0E9469
S11300C049008AB38ABB88B38F7B88BB83ED90E3F6
S11300D00197F1F700C000000895CF93C82F8BB3A8
S11300E08F709C2F907F892B8BBB88B38F7988BBB3
S11300F00E94490087EA91E60197F1F700C00000E9
S11301002BB330E1C39FC0011124922F9F70892B20
S11301108BBB88B38F7988BB0E944900CF91089527
S113012081E00E946D000895CF93DF93C82FD62FEE
S1130130813031F4603220F480E8860F0E946D0033
S1130140C23031F4D03220F480EC8D0F0E946D0067
S1130150DF91CF91089587E893E10197F1F700C00B
S113016000000E94560087B3806E87BB88B38F71EE
S113017088BB0E94490085EA9EE00197F1F700C020
S113018000000E9490008AB38ABB82E00E946D0046
S113019088E20E946D0086E00E946D0080E80E9463
S11301A06D008FE00E946D000895CF93C82F8BB32C
S11301B08F709C2F907F892B8BBB88B3806288BB08
S11301C088B38F7B88BB0E9449002BB330E1C39F67
S11301D0C0011124922F9F70892B8BBB88B380623E
S11301E088BB88B38F7B88BB0E944900CF91089558
S11301F00F931F93CF93DF938C01C0E0D0E018C01E
S113020021960F5F1F4F0E94D500C032D10529F4FB
S113021060E082E00E9494000BC0CF31D10541F42C
S11302200E94900060E080E00E949400C0E0D0E072
S1130230F80180818111E4CFDF91CF911F910F915B
S1130240089520914B01FC01E20FF11D6083E7EA60
S1130250F1E63197F1F700C0000020914B01FC0159
S1130260E20FF11D80810E94D50080914B018F5FC8
S113027080934B0108959C01A2E4BFE00E94B8055D
S1130280DC01CB01689412F8B695A79597958795EC
S11302901694D1F7BC0112BE0BC008B600FE05C00F
S11302A088B7816088BF615071096115710519F0C3
S11302B06115710591F70895CF93DF9300D01F92D4
S11302C0CDB7DEB7813071F488E0898383E08A8317
S11302D080E38B838BE40E94FE04CE0101960E948E
S11302E0B8040DC088E0898381E08A8380E38B832E
S11302F08BE90E94FE04CE0101960E94B8040F907F
S11303000F900F90DF91CF910895833061F527C04E
S11303100E94900060E081E00E94940088E690E0F2
S11303200E94F80087B3816087BB88B3816088BB73
S11303302FE382E49FE0215080409040E1F700C029
S1130340000088B38E7F88BB87EA91E60197F1F7B6
S113035000C0000080914A018F5F80934A01809120
S11303604A018F30A9F60895DC0190E00DC0292FD1
S113037030E0FD01E20FF31F5081FB01E20FF31F98
S11303802081521305C09F5F941788F381E001C058
S113039080E08130A9F40E94900060E081E00E9436
S11303A094008BE790E00E94F8002FE38DE093E047
S11303B0215080409040E1F700C0000081E00895A2
S11303C0809160000E9485010E94900060E081E0BD
S11303D00E94940082E990E00E94F80087EA91E686
S11303E00197F1F700C0000060E082E00E949400F1
S11303F088EA90E00E94F80087EA91E60197F1F715
S113040000C00000809160008F5F8093600080E0F6
S11304100895CF930E94900060E081E00E949400D0
S113042089EB90E00E94F80060E082E00E94940072
S113043080E00E945C01C1E01FC083E090E00E9464
S11304403B011F92CF9386ED90E09F938F9383E5BA
S113045091E09F938F930E94C70583E591E00E94EA
S1130460F80085E090E00E943B01CF5F0F900F9071
S11304700F900F900F900F90C630F8F20E94F40482
S11304800E94900060E081E00E94940089ED90E079
S11304900E94F80081E00E945C0187EA91E60197DE
S11304A0F1F700C000000E94F404CF910895EF9288
S11304B0FF920F931F93CF93DF93CDB7DEB7EC97E3
S11304C00FB6F894DEBF0FBECDBF8FEF87BB8ABBDC
S11304D081B3826081BB81B38E7F81BB81B3806431
S11304E081BB87B3886087BB87B3816087BB7894FF
S11304F00E9400050E94AB0060E081E00E9494002D
S113050084EE90E00E94F80060E082E00E94940093
S113051010E008C00E941905682FCE0101960E94C0
S113052021011F5F1530B0F30E94900060E081E06C
S11305300E94940081EE90E00E94F80060E082E066
S11305400E94940010E014C0E12EF12C0E941905C1
S1130550EBE0F0E0EC0FFD1FEE0DFF1D8083E7EAFA
S1130560F1E63197F1F700C000000E94D5001F5F4B
S1130570153050F387EA91E60197F1F700C00000C7
S11305800E9462040E94900060E081E00E94940056
S113059010E01DC0E1E0F0E0EC0FFD1FE10FF11DE4
S11305A0608180916300909164000E944B04E3ECAD
S11305B0F9E03197F1F700C000001F5F80916300FC
S11305C090916400019690936400809363001530C9
S11305D008F3809163009091640001969093640005
S11305E08093630090934D0180934C0160E082E01E
S11305F00E94940010E01DC0EBE0F0E0EC0FFD1F42
S1130600E10FF11D608180916300909164000E946C
S11306104B0483EC99E00197F1F700C000001F5FE1
S1130620809163009091640001969093640080939C
S11306306300153008F384B38E7F84BB84B38D7F4D
S113064084BB10E01FC0E12EF12C809161009091D9
S113065062000E945904E5E1F0E0EC0FFD1FEE0D8D
S1130660FF1D8083E7EAF1E63197F1F700C000004F
S11306701F5F8091610090916200019690936200E7
S1130680809361001530F8F210E01FC0E12EF12CC8
S113069080914C0190914D010E945904E9E2F0E0EF
S11306A0EC0FFD1FEE0DFF1D808383EC99E0019795
S11306B0F1F700C000001F5F80914C0190914D0143
S11306C0019690934D0180934C011530F8F24AE065
S11306D0BE01675D7F4FCE0145960E94B401813013
S11306E009F0CCC00FC0282F30E0E5E1F0E0EC0FBA
S11306F0FD1FE20FF31F9081F901E358FE4F908331
S11307008F5F01C080E0853070F3E7EAF1E631974E
S1130710F1F700C000008AE00E9415050E949000D5
S113072060E081E00E94940084EF90E00E94F80071
S113073060E082E00E94940081E091E00E94F80071
S11307400E9419058B3219F08D3299F1E7CF0E947E
S1130750900060E081E00E94940084E191E00E94B6
S1130760F80060E082E00E949400F12C12C00F2D8A
S113077010E00E941905F801E759FE4F808387EACB
S113078091E60197F1F700C0000080810E94D50036
S1130790F39494E09F1558F74AE069E671E08DE719
S11307A091E00E94B401813009F0B8CF0E9409029F
S11307B0B5CF0E94900060E081E00E94940083E243
S11307C091E00E94F80060E082E00E949400F12C25
S11307D012C00F2D10E00E941905F801E759FE4FD1
S11307E0808387EA91E60197F1F700C000008081D9
S11307F00E94D500F39494E09F1558F70E9490004E
S113080060E081E00E94940086E391E00E94F80099
S113081060E082E00E949400F12C12C00F2D10E0E1
S11308200E941905F801EB5AFE4F808387EA91E68E
S11308300197F1F700C0000080810E94D500F39475
S113084094E09F1558F74AE069E671E08DE791E07E
S11308500E94B401813009F061CF0CC0822F90E076
S1130860FC01EB5AFE4F3081FC01E358FE4F30830C
S11308702F5F01C020E0253088F350CFEC960FB6EF
S1130880F894DEBF0FBECDBFDF91CF911F910F91C2
S1130890FF90EF900895E199FECF9FBB8EBB6DBB97
S11308A0F8948CB384608CBB8CB382608CBB7894DA
S11308B00895E199FECF9FBB8EBB8CB381608CBB46
S11308C08DB3089580E280B911B880EA83B984E0D9
S11308D086BF08951F920F920FB60F9211242F9383
S11308E03F934F935F936F937F938F939F93AF93B4
S11308F0BF93EF93FF93E0919501F09196010995D1
S1130900FF91EF91BF91AF919F918F917F916F91E3
S11309105F914F913F912F910F900FBE0F901F90B9
S113092018951F920F920FB60F9211242F933F9395
S11309304F935F936F937F938F939F93AF93BF93E3
S1130940EF93FF93E0919301F09194010995FF9146
S1130950EF91BF91AF919F918F917F916F915F9133
S11309604F913F912F910F900FBE0F901F901895AC
S11309709093990180939801FC018081803411F057
S1130980883079F4803439F483B7806483BF83B7C3
S1130990886083BF06C083B7806483BF83B7877FC3
S11309A083BFE0919801F09199018181883018F416
S11309B093B7892B83BFE0919801F09199018281CB
S11309C0803311F0803179F4803339F483B7806156
S11309D083BF83B7806283BF089583B78F7E83BF4D
S11309E083B7806283BF089583B78E7F83BF83B745
S11309F08D7F83BF83B78B7F83BF08958CBF08959A
S1130A0083E389B98BB18D7F8BB980B5846080BD58
S1130A1080B5826080BD8AB18B7F8AB98AB18860D3
S1130A208AB98AB180618AB908955D9BFECF8CB979
S1130A3008955F9BFECF8CB108958CB908958CB155
S1130A4008958AB18F778AB908951F920F920FB6CD
S1130A500F9211242F933F934F935F936F937F9340
S1130A608F939F93AF93BF93EF93FF938091650010
S1130A70E0915101F0915201E80FF11D808188232A
S1130A8041F00E941D05809165008F5F8093650091
S1130A9005C081E08093650080936700FF91EF912A
S1130AA0BF91AF919F918F917F916F915F914F9182
S1130AB03F912F910F900FBE0F901F9018951F928A
S1130AC00F920FB60F9211242F933F934F935F937E
S1130AD06F937F938F939F93AF93BF93CF93DF9342
S1130AE0EF93FF93F89480914E01C0914F01D09100
S1130AF05001C80FD11D0E941F05888360914E01CB
S1130B0082E00E94940080914E01E0914F01F091A7
S1130B105001E80FF11D80810E94D50080914E01A3
S1130B20E0914F01F0915001E80FF11D80818D306B
S1130B3031F4108281E0809366000E942105809147
S1130B404E018F5F80934E017894FF91EF91DF9176
S1130B50CF91BF91AF919F918F917F916F915F9151
S1130B604F913F912F910F900FBE0F901F901895AA
S1130B70A29FB001B39FC001A39F700D811D1124DA
S1130B80911DB29F700D811D1124911D0895AEE039
S1130B90B0E0EDECF5E00C9488080D891E8986E040
S1130BA08C831A8309838FEF9FE79E838D83AE0125
S1130BB0475E5F4F6F89788DCE0101960E94E905EB
S1130BC0EF81F885E00FF11F10822E96E4E00C947B
S1130BD0A408ABE0B0E0EFEEF5E00C947A086C0109
S1130BE07B018A01FC0117821682838181FFCCC1BB
S1130BF0CE0101963C01F6019381F70193FD8591A5
S1130C0093FF81917F01882309F4BAC1853239F4B5
S1130C1093FD859193FF81917F01853229F4B6017B
S1130C2090E00E94E007E7CF912C212C312CFFE1CA
S1130C30F315D8F08B3279F038F4803279F08332BE
S1130C40A1F4232D20611DC08D3261F0803369F43D
S1130C50232D216016C0832D8260382EE32DE4609D
S1130C603E2E2AC0F32DF8601DC037FC2DC020EDA8
S1130C70280F2A3040F08E32B9F436FC81C1232D7E
S1130C802064322E19C036FE06C08AE0989E200DDC
S1130C901124922E11C0EAE02E9E200D1124222E42
S1130CA0F32DF0623F2E08C08C3621F4832D80682A
S1130CB0382E02C0883641F4F70193FD859193FFE5
S1130CC081917F018111B3CF982F9F7D95549330EB
S1130CD028F40C5F1F4F9FE399830DC0833631F0D6
S1130CE0833771F0833509F059C021C0F801808140
S1130CF089830E5F1F4F88248394912C530113C062
S1130D002801F2E04F0E511CF801A080B18036FE9C
S1130D1003C0692D70E002C06FEF7FEFC5010E9430
S1130D20D5074C018201F32DFF773F2E16C0280111
S1130D3022E0420E511CF801A080B18036FE03C0AF
S1130D40692D70E002C06FEF7FEFC5010E94CA07F2
S1130D504C01F32DF0683F2E820133FC1BC0822D21
S1130D6090E088169906B0F4B60180E290E00E9403
S1130D70E0072A94F4CFF50137FC859137FE819181
S1130D805F01B60190E00E94E00721102A9421E05F
S1130D90821A91088114910471F7E8C0843611F025
S1130DA0893641F5F80137FE07C06081718182817F
S1130DB093810C5F1F4F08C060817181072E000C66
S1130DC0880B990B0E5F1F4FF32DFF763F2E97FF75
S1130DD009C090958095709561957F4F8F4F9F4F77
S1130DE0F0683F2E2AE030E0A3010E941C08882E00
S1130DF0861845C0853731F4232D2F7EB22E2AE084
S1130E0030E025C0932D997FB92E8F36C1F018F4A8
S1130E10883579F0B5C0803719F0883721F0B0C033
S1130E20E92FE061BE2EB4FE0DC0FB2DF460BF2E91
S1130E3009C034FE0AC0292F2660B22E06C028E05D
S1130E4030E005C020E130E002C020E132E0F801EA
S1130E50B7FE07C060817181828193810C5F1F4F4F
S1130E6006C06081718180E090E00E5F1F4FA30196
S1130E700E941C08882E8618FB2DFF773F2E36FE15
S1130E800DC0232D2E7FA22E891458F434FE0BC0DE
S1130E9032FC09C0832D8E7EA82E05C0B82CA32C4D
S1130EA003C0B82C01C0B92CA4FE0FC0FE01E80D8C
S1130EB0F11D8081803321F49A2D997EA92E09C0D9
S1130EC0A2FE06C0B394B39404C08A2D867809F0B8
S1130ED0B394A3FC11C0A0FE06C0B21488F4280C7D
S1130EE0922C9B180EC0B21460F4B60180E290E01C
S1130EF00E94E007B394F7CFB21418F42B1802C081
S1130F00982C212CA4FE10C0B60180E390E00E942E
S1130F10E007A2FE17C0A1FC03C088E790E002C06E
S1130F2088E590E0B6010CC08A2D867859F0A1FEC0
S1130F3002C08BE201C080E2A7FC8DE2B60190E022
S1130F400E94E007891438F4B60180E390E00E941F
S1130F50E0079A94F7CF8A94F301E80DF11D80819C
S1130F60B60190E00E94E0078110F5CF222009F439
S1130F7042CEB60180E290E00E94E0072A94F6CFC8
S1130F80F6018681978102C08FEF9FEF2B96E2E1F5
S1130F900C949608FC010590615070400110D8F73C
S1130FA0809590958E0F9F1F0895FC0161507040AD
S1130FB001900110D8F7809590958E0F9F1F08958A
S1130FC00F931F93CF93DF93FB01238121FD03C074
S1130FD08FEF9FEF2CC022FF16C0468157812481DA
S1130FE035814217530744F4A081B1819D012F5FDD
S1130FF03F4F318320838C93268137812F5F3F4F6E
S11310003783268314C08B01EC01FB010084F18536
S1131010E02D0995892BE1F6D80116968D919C91C6
S11310201797019617969C938E931697CE01DF918E
S1131030CF911F910F910895FA01AA27283051F1F9
S1131040203181F1E8946F936E7F6E5F7F4F8F4FF5
S11310509F4FAF4FB1E03ED0B4E03CD0670F781F54
S1131060891F9A1FA11D680F791F8A1F911DA11D39
S11310706A0F711D811D911DA11D20D009F4689472
S11310803F912AE0269F11243019305D3193DEF61A
S1131090CF010895462F4770405D4193B3E00FD0D0
S11310A0C9F7F6CF462F4F70405D4A3318F0495DBB
S11310B031FD4052419302D0A9F7EACFB4E0A6959E
S11310C09795879577956795BA95C9F700976105C0
S11310D0710508959B01AC010A2E06945795479516
S11310E037952795BA95C9F7620F731F841F951F0B
S11310F0A01D08952F923F924F925F926F927F921C
S11311008F929F92AF92BF92CF92DF92EF92FF9213
S11311100F931F93CF93DF93CDB7DEB7CA1BDB0BBF
S11311200FB6F894DEBF0FBECDBF09942A88398864
S113113048885F846E847D848C849B84AA84B9846B
S1131140C884DF80EE80FD800C811B81AA81B98177
S1131150CE0FD11D0FB6F894DEBF0FBECDBFED018B
S10911600895F894FFCF8E
S113116601020302030101013D3D3D3D3D3D3D5468
S1131176484945463D3D3D3D3D3D005061737377CD
S11311866F726420417265204D6174636865643AC8
S113119620003D3D3D3D57726F6E6720506173736D
S11311A6776F72643D3D3D003D3D3D3D547279206F
S11311B6416761696E3D3D3D004C6F636B20697309
S11311C6204F50454E20466F722035205365636F7D
S11311D66E64733A20002564004C6F636B65643A51
S11311E60052652D456E7465722050617373776F76
S11311F672643A002B203A4F70656E20446F6F720A
S1131206002D203A4368616E6765205061737377D9
S11312166F726400456E7465722050617373776FE4
S1131226726400456E746572204F4C44205061739D
S113123673776F726400456E746572204E4557204D
S10D124650617373776F7264000047
S9030000FC
