S018000041746D65676133325F447269766572732E737265631A
S11300000C9431000C944E000C944E000C944E0051
S11300100C944E000C944E000C944E000C944E0024
S11300200C944E000C944E000C944E000C944E0014
S11300300C944E000C9473010C944E000C943901F2
S11300400C944E000C944E000C944E000C944E00F4
S11300500C944E00E000E700EE00F500FC00060101
S11300600F0111241FBECFE5D8E0DEBFCDBF10E0E5
S1130070A0E6B0E0E8EAF3E002C005900D92A436F1
S1130080B107D9F720E0A4E6B0E001C01D92A9367B
S1130090B207E1F70E94BA000C94D2010C9400005C
S11300A088B3877F88BB83ED90E30197F1F700C0A5
S11300B0000088B3886088BB0895CF93C82F8BB3A2
S11300C08F709C2F907F892B8BBB88B3897F88BBD3
S11300D00E94500087EA91E60197F1F700C0000002
S11300E02BB330E1C39FC0011124922F9F70892B41
S11300F08BBB88B3897F88BB0E945000CF91089541
S1130100CF93DF93C82FD62F813031F4603120F4A0
S113011080E8860F0E945D00C23031F4D03120F4B3
S113012080EC8D0F0E945D00DF91CF910895CF93F5
S1130130C82F8BB38F709C2F907F892B8BBB88B378
S1130140826088BB88B38B7F88BB0E9450002BB32E
S113015030E1C39FC0011124922F9F70892B8BBB68
S113016088B3826088BB88B38B7F88BB0E945000B1
S1130170CF91089587B3806B87BB87B38F7B87BB91
S11301808FEF8ABB81E090E00E941901C0E02FE369
S11301908DE093E0215080409040E1F700C00000E2
S11301A08C2F90E00E942C018BBBCF5FF0CF90E0AE
S11301B087309105E8F5FC01E65DFF4F0C94CC0116
S11301C08DB18E7F8DB98DB18D7F8DB908958DB12F
S11301D081608DB98DB18D7F8DB908958DB18260A7
S11301E08DB98DB18E7F8DB908958DB182608DB931
S11301F08DB181608DB908958DB18E7F8DB98DB12A
S11302008D7F8DB98EB181608EB908958DB1816075
S11302108DB98DB18D7F8DB98EB181608EB98DB15F
S113022082608DB98DB18E7F8DB98EB181608EB9AA
S11302300895813039F48DB180618DB98DB1877F96
S11302408DB903C08DB18F7E8DB98DB180648DB9A8
S113025080E00E94D70008958FB9779BFECF8FB1BD
S113026008958CB908958CB108958AB18F778AB9AD
S113027008951F920F920FB60F9211242F933F935C
S11302804F935F936F937F938F939F93AF93BF939A
S1130290EF93FF9380916000E0916700F091680014
S11302A0E80FF11D8081882341F00E943101809183
S11302B060008F5F8093600005C081E080936000E0
S11302C080936200FF91EF91BF91AF919F918F91C5
S11302D07F916F915F914F913F912F910F900FBE3E
S11302E00F901F9018951F920F920FB60F92112422
S11302F02F933F934F935F936F937F938F939F932A
S1130300AF93BF93CF93DF93EF93FF93F8948091D0
S11303106400C0916500D0916600C80FD11D0E9491
S1130320330188836091640082E00E9480008091A0
S11303306400E0916500F0916600E80FF11D808192
S11303400E94970080916400E0916500F09166003E
S1130350E80FF11D80818D3031F4108281E08093AB
S113036061000E943501809164008F5F8093640076
S11303707894FF91EF91DF91CF91BF91AF919F91CD
S11303808F917F916F915F914F913F912F910F903A
S11303900FBE0F901F901895EE0FFF1F0590F4915C
S10B03A0E02D0994F894FFCF4D
S10703A8010101004A
S9030000FC
